{
  "contractName": "Predict",
  "abi": [
    {
      "inputs": [],
      "stateMutability": "nonpayable",
      "type": "constructor"
    },
    {
      "inputs": [
        {
          "internalType": "uint256",
          "name": "",
          "type": "uint256"
        }
      ],
      "name": "questions",
      "outputs": [
        {
          "internalType": "uint8",
          "name": "id",
          "type": "uint8"
        },
        {
          "internalType": "string",
          "name": "questionTitle",
          "type": "string"
        },
        {
          "internalType": "uint32",
          "name": "totalVolume",
          "type": "uint32"
        },
        {
          "internalType": "uint32",
          "name": "totalUsers",
          "type": "uint32"
        },
        {
          "internalType": "bool",
          "name": "prizeDistributed",
          "type": "bool"
        }
      ],
      "stateMutability": "view",
      "type": "function"
    },
    {
      "inputs": [],
      "name": "questionsCount",
      "outputs": [
        {
          "internalType": "uint8",
          "name": "",
          "type": "uint8"
        }
      ],
      "stateMutability": "view",
      "type": "function"
    },
    {
      "inputs": [
        {
          "internalType": "address",
          "name": "",
          "type": "address"
        }
      ],
      "name": "userInfo",
      "outputs": [
        {
          "internalType": "uint32",
          "name": "prizeAmount",
          "type": "uint32"
        }
      ],
      "stateMutability": "view",
      "type": "function"
    },
    {
      "inputs": [
        {
          "internalType": "string",
          "name": "_title",
          "type": "string"
        },
        {
          "internalType": "string[]",
          "name": "_answers",
          "type": "string[]"
        }
      ],
      "name": "addFundingBucket",
      "outputs": [],
      "stateMutability": "nonpayable",
      "type": "function"
    },
    {
      "inputs": [
        {
          "internalType": "uint8",
          "name": "questionId",
          "type": "uint8"
        },
        {
          "internalType": "uint8",
          "name": "answerId",
          "type": "uint8"
        },
        {
          "internalType": "uint32",
          "name": "amount",
          "type": "uint32"
        }
      ],
      "name": "selectProject",
      "outputs": [
        {
          "components": [
            {
              "internalType": "uint8",
              "name": "questionId",
              "type": "uint8"
            },
            {
              "internalType": "uint8",
              "name": "answerId",
              "type": "uint8"
            },
            {
              "internalType": "string",
              "name": "answer",
              "type": "string"
            },
            {
              "internalType": "address[]",
              "name": "usersAddress",
              "type": "address[]"
            },
            {
              "internalType": "uint32[]",
              "name": "usersValue",
              "type": "uint32[]"
            },
            {
              "internalType": "uint32",
              "name": "volume",
              "type": "uint32"
            }
          ],
          "internalType": "struct Predict.Answer",
          "name": "",
          "type": "tuple"
        }
      ],
      "stateMutability": "nonpayable",
      "type": "function"
    },
    {
      "inputs": [
        {
          "internalType": "uint8",
          "name": "questionId",
          "type": "uint8"
        }
      ],
      "name": "distributePrizes",
      "outputs": [],
      "stateMutability": "nonpayable",
      "type": "function"
    },
    {
      "inputs": [],
      "name": "getUserAddress",
      "outputs": [
        {
          "internalType": "address",
          "name": "",
          "type": "address"
        }
      ],
      "stateMutability": "view",
      "type": "function"
    }
  ],
  "bytecode": "0x608060405234801561001057600080fd5b506000600160006101000a81548160ff021916908360ff1602179055506130758061003c6000396000f3fe608060405234801561001057600080fd5b506004361061007d5760003560e01c806361edf9b21161005b57806361edf9b2146101165780637c1fb3c314610132578063a60c107d14610150578063ebc3eee81461016c5761007d565b80631959a0021461008257806331b1b978146100b25780634955ab4c146100e6575b600080fd5b61009c60048036038101906100979190612783565b61018a565b6040516100a99190612b54565b60405180910390f35b6100cc60048036038101906100c79190612818565b6101b8565b6040516100dd959493929190612b8a565b60405180910390f35b61010060048036038101906100fb919061286a565b6102c0565b60405161010d9190612b32565b60405180910390f35b610130600480360381019061012b9190612841565b610d2a565b005b61013a6114ec565b6040516101479190612b6f565b60405180910390f35b61016a600480360381019061016591906127ac565b6114ff565b005b6101746119b9565b6040516101819190612b17565b60405180910390f35b60026020528060005260406000206000915090508060000160009054906101000a900463ffffffff16905081565b600081815481106101c857600080fd5b90600052602060002090600402016000915090508060000160009054906101000a900460ff16908060010180546101fe90612e89565b80601f016020809104026020016040519081016040528092919081815260200182805461022a90612e89565b80156102775780601f1061024c57610100808354040283529160200191610277565b820191906000526020600020905b81548152906001019060200180831161025a57829003601f168201915b5050505050908060030160009054906101000a900463ffffffff16908060030160049054906101000a900463ffffffff16908060030160089054906101000a900460ff16905085565b6102c86122e2565b8160008560ff1681548110610306577f4e487b7100000000000000000000000000000000000000000000000000000000600052603260045260246000fd5b906000526020600020906004020160030160009054906101000a900463ffffffff166103329190612d05565b60008560ff168154811061036f577f4e487b7100000000000000000000000000000000000000000000000000000000600052603260045260246000fd5b906000526020600020906004020160030160006101000a81548163ffffffff021916908363ffffffff160217905550600160008560ff16815481106103dd577f4e487b7100000000000000000000000000000000000000000000000000000000600052603260045260246000fd5b906000526020600020906004020160030160049054906101000a900463ffffffff166104099190612d05565b60008560ff1681548110610446577f4e487b7100000000000000000000000000000000000000000000000000000000600052603260045260246000fd5b906000526020600020906004020160030160046101000a81548163ffffffff021916908363ffffffff16021790555060008460ff16815481106104b2577f4e487b7100000000000000000000000000000000000000000000000000000000600052603260045260246000fd5b90600052602060002090600402016002018360ff16815481106104fe577f4e487b7100000000000000000000000000000000000000000000000000000000600052603260045260246000fd5b90600052602060002090600502016003018290806001815401808255809150506001900390600052602060002090600891828204019190066004029091909190916101000a81548163ffffffff021916908363ffffffff16021790555060008460ff1681548110610598577f4e487b7100000000000000000000000000000000000000000000000000000000600052603260045260246000fd5b90600052602060002090600402016002018360ff16815481106105e4577f4e487b7100000000000000000000000000000000000000000000000000000000600052603260045260246000fd5b9060005260206000209060050201600201339080600181540180825580915050600190039060005260206000200160009091909190916101000a81548173ffffffffffffffffffffffffffffffffffffffff021916908373ffffffffffffffffffffffffffffffffffffffff1602179055508160008560ff1681548110610694577f4e487b7100000000000000000000000000000000000000000000000000000000600052603260045260246000fd5b90600052602060002090600402016002018460ff16815481106106e0577f4e487b7100000000000000000000000000000000000000000000000000000000600052603260045260246000fd5b906000526020600020906005020160040160009054906101000a900463ffffffff1661070c9190612d05565b60008560ff1681548110610749577f4e487b7100000000000000000000000000000000000000000000000000000000600052603260045260246000fd5b90600052602060002090600402016002018460ff1681548110610795577f4e487b7100000000000000000000000000000000000000000000000000000000600052603260045260246000fd5b906000526020600020906005020160040160006101000a81548163ffffffff021916908363ffffffff16021790555060008460ff1681548110610801577f4e487b7100000000000000000000000000000000000000000000000000000000600052603260045260246000fd5b90600052602060002090600402016002018360ff168154811061084d577f4e487b7100000000000000000000000000000000000000000000000000000000600052603260045260246000fd5b9060005260206000209060050201600260003373ffffffffffffffffffffffffffffffffffffffff1673ffffffffffffffffffffffffffffffffffffffff1681526020019081526020016000206001018560ff16815481106108d8577f4e487b7100000000000000000000000000000000000000000000000000000000600052603260045260246000fd5b90600052602060002090600502016000820160009054906101000a900460ff168160000160006101000a81548160ff021916908360ff1602179055506000820160019054906101000a900460ff168160000160016101000a81548160ff021916908360ff160217905550600182018160010190805461095690612e89565b610961929190612324565b5060028201816002019080546109789291906123b1565b50600382018160030190805461098f929190612403565b506004820160009054906101000a900463ffffffff168160040160006101000a81548163ffffffff021916908363ffffffff16021790555090505081600260003373ffffffffffffffffffffffffffffffffffffffff1673ffffffffffffffffffffffffffffffffffffffff1681526020019081526020016000206002018560ff1681548110610a48577f4e487b7100000000000000000000000000000000000000000000000000000000600052603260045260246000fd5b90600052602060002090600891828204019190066004026101000a81548163ffffffff021916908363ffffffff16021790555060008460ff1681548110610ab8577f4e487b7100000000000000000000000000000000000000000000000000000000600052603260045260246000fd5b90600052602060002090600402016002018360ff1681548110610b04577f4e487b7100000000000000000000000000000000000000000000000000000000600052603260045260246000fd5b90600052602060002090600502016040518060c00160405290816000820160009054906101000a900460ff1660ff1660ff1681526020016000820160019054906101000a900460ff1660ff1660ff168152602001600182018054610b6790612e89565b80601f0160208091040260200160405190810160405280929190818152602001828054610b9390612e89565b8015610be05780601f10610bb557610100808354040283529160200191610be0565b820191906000526020600020905b815481529060010190602001808311610bc357829003601f168201915b5050505050815260200160028201805480602002602001604051908101604052809291908181526020018280548015610c6e57602002820191906000526020600020905b8160009054906101000a900473ffffffffffffffffffffffffffffffffffffffff1673ffffffffffffffffffffffffffffffffffffffff1681526020019060010190808311610c24575b5050505050815260200160038201805480602002602001604051908101604052809291908181526020018280548015610cf257602002820191906000526020600020906000905b82829054906101000a900463ffffffff1663ffffffff1681526020019060040190602082600301049283019260010382029150808411610cb55790505b505050505081526020016004820160009054906101000a900463ffffffff1663ffffffff1663ffffffff168152505090509392505050565b6000805490508160ff16108015610da157506001151560008260ff1681548110610d7d577f4e487b7100000000000000000000000000000000000000000000000000000000600052603260045260246000fd5b906000526020600020906004020160030160089054906101000a900460ff16151514155b156114e9576000808260ff1681548110610de4577f4e487b7100000000000000000000000000000000000000000000000000000000600052603260045260246000fd5b9060005260206000209060040201600201805480602002602001604051908101604052809291908181526020016000905b8282101561104b57838290600052602060002090600502016040518060c00160405290816000820160009054906101000a900460ff1660ff1660ff1681526020016000820160019054906101000a900460ff1660ff1660ff168152602001600182018054610e8290612e89565b80601f0160208091040260200160405190810160405280929190818152602001828054610eae90612e89565b8015610efb5780601f10610ed057610100808354040283529160200191610efb565b820191906000526020600020905b815481529060010190602001808311610ede57829003601f168201915b5050505050815260200160028201805480602002602001604051908101604052809291908181526020018280548015610f8957602002820191906000526020600020905b8160009054906101000a900473ffffffffffffffffffffffffffffffffffffffff1673ffffffffffffffffffffffffffffffffffffffff1681526020019060010190808311610f3f575b505050505081526020016003820180548060200260200160405190810160405280929190818152602001828054801561100d57602002820191906000526020600020906000905b82829054906101000a900463ffffffff1663ffffffff1681526020019060040190602082600301049283019260010382029150808411610fd05790505b505050505081526020016004820160009054906101000a900463ffffffff1663ffffffff1663ffffffff168152505081526020019060010190610e15565b5050505090506000600a60008460ff1681548110611092577f4e487b7100000000000000000000000000000000000000000000000000000000600052603260045260246000fd5b906000526020600020906004020160030160009054906101000a900463ffffffff166110be9190612d3f565b60008460ff16815481106110fb577f4e487b7100000000000000000000000000000000000000000000000000000000600052603260045260246000fd5b906000526020600020906004020160030160009054906101000a900463ffffffff166111279190612dae565b905060005b82518160ff16101561147e57600061114485836119c1565b90506000606482856111569190612d70565b6111609190612d3f565b905060005b858460ff16815181106111a1577f4e487b7100000000000000000000000000000000000000000000000000000000600052603260045260246000fd5b602002602001015160600151518160ff161015611468576000868560ff16815181106111f6577f4e487b7100000000000000000000000000000000000000000000000000000000600052603260045260246000fd5b602002602001015160a0015163ffffffff161461145557600060026000888760ff168151811061124f577f4e487b7100000000000000000000000000000000000000000000000000000000600052603260045260246000fd5b6020026020010151606001518460ff1681518110611296577f4e487b7100000000000000000000000000000000000000000000000000000000600052603260045260246000fd5b602002602001015173ffffffffffffffffffffffffffffffffffffffff1673ffffffffffffffffffffffffffffffffffffffff16815260200190815260200160002090506000878660ff1681518110611318577f4e487b7100000000000000000000000000000000000000000000000000000000600052603260045260246000fd5b602002602001015160a001516064836002018b60ff1681548110611365577f4e487b7100000000000000000000000000000000000000000000000000000000600052603260045260246000fd5b90600052602060002090600891828204019190066004029054906101000a900463ffffffff166113959190612d70565b61139f9190612d3f565b90506000606482866113b19190612d70565b6113bb9190612d3f565b9050611451898860ff16815181106113fc577f4e487b7100000000000000000000000000000000000000000000000000000000600052603260045260246000fd5b6020026020010151606001518560ff1681518110611443577f4e487b7100000000000000000000000000000000000000000000000000000000600052603260045260246000fd5b60200260200101518261211a565b5050505b808061146090612eec565b915050611165565b505050808061147690612eec565b91505061112c565b50600160008460ff16815481106114be577f4e487b7100000000000000000000000000000000000000000000000000000000600052603260045260246000fd5b906000526020600020906004020160030160086101000a81548160ff02191690831515021790555050505b50565b600160009054906101000a900460ff1681565b600060018160018154018082558091505003906000526020600020905050600160009054906101000a900460ff166000600160009054906101000a900460ff1660ff1681548110611579577f4e487b7100000000000000000000000000000000000000000000000000000000600052603260045260246000fd5b906000526020600020906004020160000160006101000a81548160ff021916908360ff160217905550816000600160009054906101000a900460ff1660ff16815481106115ef577f4e487b7100000000000000000000000000000000000000000000000000000000600052603260045260246000fd5b90600052602060002090600402016001019080519060200190611613929190612463565b50600080600160009054906101000a900460ff1660ff1681548110611661577f4e487b7100000000000000000000000000000000000000000000000000000000600052603260045260246000fd5b906000526020600020906004020160030160006101000a81548163ffffffff021916908363ffffffff160217905550600080600160009054906101000a900460ff1660ff16815481106116dd577f4e487b7100000000000000000000000000000000000000000000000000000000600052603260045260246000fd5b906000526020600020906004020160030160046101000a81548163ffffffff021916908363ffffffff160217905550600080600160009054906101000a900460ff1660ff1681548110611759577f4e487b7100000000000000000000000000000000000000000000000000000000600052603260045260246000fd5b906000526020600020906004020160030160086101000a81548160ff02191690831515021790555060608060005b83518160ff16101561197a576000600160009054906101000a900460ff1660ff16815481106117df577f4e487b7100000000000000000000000000000000000000000000000000000000600052603260045260246000fd5b90600052602060002090600402016002016040518060c00160405280600160009054906101000a900460ff1660ff1681526020018360ff168152602001868460ff1681518110611858577f4e487b7100000000000000000000000000000000000000000000000000000000600052603260045260246000fd5b60200260200101518152602001858152602001848152602001600063ffffffff16815250908060018154018082558091505060019003906000526020600020906005020160009091909190915060008201518160000160006101000a81548160ff021916908360ff16021790555060208201518160000160016101000a81548160ff021916908360ff1602179055506040820151816001019080519060200190611903929190612463565b5060608201518160020190805190602001906119209291906124e9565b50608082015181600301908051906020019061193d929190612573565b5060a08201518160040160006101000a81548163ffffffff021916908363ffffffff1602179055505050808061197290612eec565b915050611787565b506001600081819054906101000a900460ff168092919061199a90612eec565b91906101000a81548160ff021916908360ff1602179055505050505050565b600033905090565b60008060008460ff1681548110611a01577f4e487b7100000000000000000000000000000000000000000000000000000000600052603260045260246000fd5b90600052602060002090600402016040518060c00160405290816000820160009054906101000a900460ff1660ff1660ff168152602001600182018054611a4790612e89565b80601f0160208091040260200160405190810160405280929190818152602001828054611a7390612e89565b8015611ac05780601f10611a9557610100808354040283529160200191611ac0565b820191906000526020600020905b815481529060010190602001808311611aa357829003601f168201915b5050505050815260200160028201805480602002602001604051908101604052809291908181526020016000905b82821015611d2457838290600052602060002090600502016040518060c00160405290816000820160009054906101000a900460ff1660ff1660ff1681526020016000820160019054906101000a900460ff1660ff1660ff168152602001600182018054611b5b90612e89565b80601f0160208091040260200160405190810160405280929190818152602001828054611b8790612e89565b8015611bd45780601f10611ba957610100808354040283529160200191611bd4565b820191906000526020600020905b815481529060010190602001808311611bb757829003601f168201915b5050505050815260200160028201805480602002602001604051908101604052809291908181526020018280548015611c6257602002820191906000526020600020905b8160009054906101000a900473ffffffffffffffffffffffffffffffffffffffff1673ffffffffffffffffffffffffffffffffffffffff1681526020019060010190808311611c18575b5050505050815260200160038201805480602002602001604051908101604052809291908181526020018280548015611ce657602002820191906000526020600020906000905b82829054906101000a900463ffffffff1663ffffffff1681526020019060040190602082600301049283019260010382029150808411611ca95790505b505050505081526020016004820160009054906101000a900463ffffffff1663ffffffff1663ffffffff168152505081526020019060010190611aee565b5050505081526020016003820160009054906101000a900463ffffffff1663ffffffff1663ffffffff1681526020016003820160049054906101000a900463ffffffff1663ffffffff1663ffffffff1681526020016003820160089054906101000a900460ff16151515158152505090506000808560ff1681548110611dd3577f4e487b7100000000000000000000000000000000000000000000000000000000600052603260045260246000fd5b90600052602060002090600402016002018460ff1681548110611e1f577f4e487b7100000000000000000000000000000000000000000000000000000000600052603260045260246000fd5b90600052602060002090600502016040518060c00160405290816000820160009054906101000a900460ff1660ff1660ff1681526020016000820160019054906101000a900460ff1660ff1660ff168152602001600182018054611e8290612e89565b80601f0160208091040260200160405190810160405280929190818152602001828054611eae90612e89565b8015611efb5780601f10611ed057610100808354040283529160200191611efb565b820191906000526020600020905b815481529060010190602001808311611ede57829003601f168201915b5050505050815260200160028201805480602002602001604051908101604052809291908181526020018280548015611f8957602002820191906000526020600020905b8160009054906101000a900473ffffffffffffffffffffffffffffffffffffffff1673ffffffffffffffffffffffffffffffffffffffff1681526020019060010190808311611f3f575b505050505081526020016003820180548060200260200160405190810160405280929190818152602001828054801561200d57602002820191906000526020600020906000905b82829054906101000a900463ffffffff1663ffffffff1681526020019060040190602082600301049283019260010382029150808411611fd05790505b505050505081526020016004820160009054906101000a900463ffffffff1663ffffffff1663ffffffff168152505090506000826040015190506000805b82518160ff1610156120cd576000838260ff1681518110612095577f4e487b7100000000000000000000000000000000000000000000000000000000600052603260045260246000fd5b602002602001015190506120ac81608001516121dc565b836120b79190612d05565b92505080806120c590612eec565b91505061204b565b5060008163ffffffff161461210b578060646120ec85608001516121dc565b6120f69190612d70565b6121009190612d3f565b945050505050612114565b60009450505050505b92915050565b80600260008473ffffffffffffffffffffffffffffffffffffffff1673ffffffffffffffffffffffffffffffffffffffff16815260200190815260200160002060000160009054906101000a900463ffffffff166121789190612d05565b600260008473ffffffffffffffffffffffffffffffffffffffff1673ffffffffffffffffffffffffffffffffffffffff16815260200190815260200160002060000160006101000a81548163ffffffff021916908363ffffffff1602179055505050565b6000806000905060005b83518160ff16101561225e5761223e848260ff1681518110612231577f4e487b7100000000000000000000000000000000000000000000000000000000600052603260045260246000fd5b6020026020010151612273565b826122499190612d05565b9150808061225690612eec565b9150506121e6565b50808161226b9190612d70565b915050919050565b60008060026001846122859190612d05565b61228f9190612d3f565b905060008390505b8063ffffffff168263ffffffff1610156122d85781905060028283866122bd9190612d3f565b6122c79190612d05565b6122d19190612d3f565b9150612297565b8092505050919050565b6040518060c00160405280600060ff168152602001600060ff168152602001606081526020016060815260200160608152602001600063ffffffff1681525090565b82805461233090612e89565b90600052602060002090601f01602090048101928261235257600085556123a0565b82601f1061236357805485556123a0565b828001600101855582156123a057600052602060002091601f016020900482015b8281111561239f578254825591600101919060010190612384565b5b5090506123ad9190612623565b5090565b8280548282559060005260206000209081019282156123f25760005260206000209182015b828111156123f15782548255916001019190600101906123d6565b5b5090506123ff9190612623565b5090565b82805482825590600052602060002090600701600890048101928215612452576000526020600020916007016008900482015b82811115612451578254825591600101919060010190612436565b5b50905061245f9190612623565b5090565b82805461246f90612e89565b90600052602060002090601f01602090048101928261249157600085556124d8565b82601f106124aa57805160ff19168380011785556124d8565b828001600101855582156124d8579182015b828111156124d75782518255916020019190600101906124bc565b5b5090506124e59190612623565b5090565b828054828255906000526020600020908101928215612562579160200282015b828111156125615782518260006101000a81548173ffffffffffffffffffffffffffffffffffffffff021916908373ffffffffffffffffffffffffffffffffffffffff16021790555091602001919060010190612509565b5b50905061256f9190612623565b5090565b828054828255906000526020600020906007016008900481019282156126125791602002820160005b838211156125e057835183826101000a81548163ffffffff021916908363ffffffff160217905550926020019260040160208160030104928301926001030261259c565b80156126105782816101000a81549063ffffffff02191690556004016020816003010492830192600103026125e0565b505b50905061261f9190612623565b5090565b5b8082111561263c576000816000905550600101612624565b5090565b600061265361264e84612c09565b612be4565b9050808382526020820190508260005b858110156126935781358501612679888261271a565b845260208401935060208301925050600181019050612663565b5050509392505050565b60006126b06126ab84612c35565b612be4565b9050828152602081018484840111156126c857600080fd5b6126d3848285612e47565b509392505050565b6000813590506126ea81612fe3565b92915050565b600082601f83011261270157600080fd5b8135612711848260208601612640565b91505092915050565b600082601f83011261272b57600080fd5b813561273b84826020860161269d565b91505092915050565b60008135905061275381612ffa565b92915050565b60008135905061276881613011565b92915050565b60008135905061277d81613028565b92915050565b60006020828403121561279557600080fd5b60006127a3848285016126db565b91505092915050565b600080604083850312156127bf57600080fd5b600083013567ffffffffffffffff8111156127d957600080fd5b6127e58582860161271a565b925050602083013567ffffffffffffffff81111561280257600080fd5b61280e858286016126f0565b9150509250929050565b60006020828403121561282a57600080fd5b600061283884828501612744565b91505092915050565b60006020828403121561285357600080fd5b60006128618482850161276e565b91505092915050565b60008060006060848603121561287f57600080fd5b600061288d8682870161276e565b935050602061289e8682870161276e565b92505060406128af86828701612759565b9150509250925092565b60006128c583836128e9565b60208301905092915050565b60006128dd8383612adb565b60208301905092915050565b6128f281612de2565b82525050565b61290181612de2565b82525050565b600061291282612c86565b61291c8185612cc1565b935061292783612c66565b8060005b8381101561295857815161293f88826128b9565b975061294a83612ca7565b92505060018101905061292b565b5085935050505092915050565b600061297082612c91565b61297a8185612cd2565b935061298583612c76565b8060005b838110156129b657815161299d88826128d1565b97506129a883612cb4565b925050600181019050612989565b5085935050505092915050565b6129cc81612df4565b82525050565b60006129dd82612c9c565b6129e78185612ce3565b93506129f7818560208601612e56565b612a0081612fd2565b840191505092915050565b6000612a1682612c9c565b612a208185612cf4565b9350612a30818560208601612e56565b612a3981612fd2565b840191505092915050565b600060c083016000830151612a5c6000860182612af9565b506020830151612a6f6020860182612af9565b5060408301518482036040860152612a8782826129d2565b91505060608301518482036060860152612aa18282612907565b91505060808301518482036080860152612abb8282612965565b91505060a0830151612ad060a0860182612adb565b508091505092915050565b612ae481612e2a565b82525050565b612af381612e2a565b82525050565b612b0281612e3a565b82525050565b612b1181612e3a565b82525050565b6000602082019050612b2c60008301846128f8565b92915050565b60006020820190508181036000830152612b4c8184612a44565b905092915050565b6000602082019050612b696000830184612aea565b92915050565b6000602082019050612b846000830184612b08565b92915050565b600060a082019050612b9f6000830188612b08565b8181036020830152612bb18187612a0b565b9050612bc06040830186612aea565b612bcd6060830185612aea565b612bda60808301846129c3565b9695505050505050565b6000612bee612bff565b9050612bfa8282612ebb565b919050565b6000604051905090565b600067ffffffffffffffff821115612c2457612c23612fa3565b5b602082029050602081019050919050565b600067ffffffffffffffff821115612c5057612c4f612fa3565b5b612c5982612fd2565b9050602081019050919050565b6000819050602082019050919050565b6000819050602082019050919050565b600081519050919050565b600081519050919050565b600081519050919050565b6000602082019050919050565b6000602082019050919050565b600082825260208201905092915050565b600082825260208201905092915050565b600082825260208201905092915050565b600082825260208201905092915050565b6000612d1082612e2a565b9150612d1b83612e2a565b92508263ffffffff03821115612d3457612d33612f16565b5b828201905092915050565b6000612d4a82612e2a565b9150612d5583612e2a565b925082612d6557612d64612f45565b5b828204905092915050565b6000612d7b82612e2a565b9150612d8683612e2a565b92508163ffffffff0483118215151615612da357612da2612f16565b5b828202905092915050565b6000612db982612e2a565b9150612dc483612e2a565b925082821015612dd757612dd6612f16565b5b828203905092915050565b6000612ded82612e00565b9050919050565b60008115159050919050565b600073ffffffffffffffffffffffffffffffffffffffff82169050919050565b6000819050919050565b600063ffffffff82169050919050565b600060ff82169050919050565b82818337600083830152505050565b60005b83811015612e74578082015181840152602081019050612e59565b83811115612e83576000848401525b50505050565b60006002820490506001821680612ea157607f821691505b60208210811415612eb557612eb4612f74565b5b50919050565b612ec482612fd2565b810181811067ffffffffffffffff82111715612ee357612ee2612fa3565b5b80604052505050565b6000612ef782612e3a565b915060ff821415612f0b57612f0a612f16565b5b600182019050919050565b7f4e487b7100000000000000000000000000000000000000000000000000000000600052601160045260246000fd5b7f4e487b7100000000000000000000000000000000000000000000000000000000600052601260045260246000fd5b7f4e487b7100000000000000000000000000000000000000000000000000000000600052602260045260246000fd5b7f4e487b7100000000000000000000000000000000000000000000000000000000600052604160045260246000fd5b6000601f19601f8301169050919050565b612fec81612de2565b8114612ff757600080fd5b50565b61300381612e20565b811461300e57600080fd5b50565b61301a81612e2a565b811461302557600080fd5b50565b61303181612e3a565b811461303c57600080fd5b5056fea26469706673582212200482730e9c68c62c4a4479d7ff458ceb519778b10613033dc07b45a49dd0082364736f6c63430008020033",
  "immutableReferences": {},
  "source": "// SPDX-License-Identifier: UNLICENSED\npragma solidity ^0.8.2;\n\ncontract Predict {\n    Question[] public questions;\n    uint8 public questionsCount;\n    mapping(address => User) public userInfo;\n\n    struct Answer {\n        uint8 questionId;\n        uint8 answerId;\n        string answer;\n        address[] usersAddress;\n        uint32[] usersValue;\n        uint32 volume;\n    }\n\n    struct Question {\n        uint8 id;\n        string questionTitle;\n        Answer[] answers;\n        uint32 totalVolume;\n        uint32 totalUsers;\n        bool prizeDistributed;\n    }\n\n    struct User {\n        uint32 prizeAmount;\n        Answer[] questionIdAnswer;\n        uint32[] questionIdAmount;\n    }\n\n    constructor() {\n        questionsCount = 0;\n    }\n\n    function addFundingBucket(string memory _title, string[] memory _answers)\n        public\n    {\n        questions.push();\n        questions[questionsCount].id = questionsCount;\n        questions[questionsCount].questionTitle = _title;\n        questions[questionsCount].totalVolume = 0;\n        questions[questionsCount].totalUsers = 0;\n        questions[questionsCount].prizeDistributed = false;\n\n        address[] memory _null;\n        uint32[] memory _nullValue;\n\n        for (uint8 i = 0; i < _answers.length; i++) {\n            questions[questionsCount].answers.push(\n                Answer({\n                    questionId: questionsCount,\n                    answerId: i,\n                    volume: 0,\n                    answer: _answers[i],\n                    usersValue: _nullValue,\n                    usersAddress: _null\n                })\n            );\n        }\n        questionsCount++;\n    }\n\n    function selectProject(\n        uint8 questionId,\n        uint8 answerId,\n        uint32 amount\n    ) public returns (Answer memory) {\n        questions[questionId].totalVolume =\n            questions[questionId].totalVolume +\n            amount;\n        questions[questionId].totalUsers = questions[questionId].totalUsers + 1;\n\n        questions[questionId].answers[answerId].usersValue.push(amount);\n        questions[questionId].answers[answerId].usersAddress.push(msg.sender);\n        questions[questionId].answers[answerId].volume =\n            questions[questionId].answers[answerId].volume +\n            amount;\n\n        userInfo[msg.sender].questionIdAnswer[questionId] = questions[\n            questionId\n        ]\n            .answers[answerId];\n        userInfo[msg.sender].questionIdAmount[questionId] = amount;\n        // userInfo[msg.sender].questionIdAnswer = questions[questionId].answers[\n        //     answerId\n        // ];\n        // userInfo[msg.sender].questionIdAmount = amount;\n\n        return (questions[questionId].answers[answerId]);\n    }\n\n    function distributePrizes(uint8 questionId) public {\n        if (\n            (questionId < questions.length) &&\n            (questions[questionId].prizeDistributed != true)\n        ) {\n            Answer[] memory _answers = questions[questionId].answers;\n            uint32 _questionTotalPrize =\n                questions[questionId].totalVolume -\n                    (questions[questionId].totalVolume / 10);\n            for (uint8 i = 0; i < _answers.length; i++) {\n                // uint256 _ansPrizePercent = calcPrize(_answers[i]);\n                uint32 _ansPrizePercent = calcPrize(questionId, i);\n                uint32 _answerBucket =\n                    (_questionTotalPrize * _ansPrizePercent) / 100;\n\n                for (uint8 j = 0; j < _answers[i].usersAddress.length; j++) {\n                    if (_answers[i].volume != 0) {\n                        User storage _user =\n                            userInfo[_answers[i].usersAddress[j]];\n                        uint32 _userPercent =\n                            (_user.questionIdAmount[questionId] * 100) /\n                                _answers[i].volume;\n                        // uint32 _userPercent =\n                        //     (_user.questionIdAmount * 100) / _answers[i].volume;\n                        uint32 _userPrizeAmount =\n                            (_answerBucket * _userPercent) / 100;\n\n                        sendUserPrize({\n                            userAddress: _answers[i].usersAddress[j],\n                            prizeAmount: _userPrizeAmount\n                        });\n                    }\n                }\n            }\n            questions[questionId].prizeDistributed = true;\n        }\n    }\n\n    function getUserAddress() public view returns (address) {\n        return msg.sender;\n    }\n\n    //Utility Functions\n    function sendUserPrize(address userAddress, uint32 prizeAmount) private {\n        userInfo[userAddress].prizeAmount =\n            userInfo[userAddress].prizeAmount +\n            prizeAmount;\n    }\n\n    function sqrt(uint32 x) private pure returns (uint32) {\n        uint32 z = (x + 1) / 2;\n        uint32 y = x;\n        while (z < y) {\n            y = z;\n            z = (x / z + z) / 2;\n        }\n        return y;\n    }\n\n    function calcValue(uint32[] memory candidateValue)\n        private\n        pure\n        returns (uint32)\n    {\n        uint32 ans = 0;\n        for (uint8 i = 0; i < candidateValue.length; i++) {\n            ans = ans + sqrt(candidateValue[i]);\n        }\n        return ans * ans;\n    }\n\n    function calcPrize(uint8 questionId, uint8 answerId)\n        private\n        view\n        returns (uint32)\n    {\n        // Question memory question = questions[answer.questionId];\n        Question memory question = questions[questionId];\n        Answer memory answer = questions[questionId].answers[answerId];\n        Answer[] memory answerOptions = question.answers;\n        uint32 totalCalcValue = 0;\n\n        for (uint8 i = 0; i < answerOptions.length; i++) {\n            Answer memory _ans = answerOptions[i];\n            totalCalcValue = totalCalcValue + calcValue(_ans.usersValue);\n        }\n\n        if (totalCalcValue != 0) {\n            return (calcValue(answer.usersValue) * 100) / totalCalcValue;\n        }\n        return 0;\n    }\n}\n",
  "sourcePath": "C:/Users/Ali Solanki/crypto_projects/predictMe/contracts/Predict.sol",
  "compiler": {
    "name": "solc",
    "version": "0.8.2+commit.661d1103.Emscripten.clang"
  },
  "schemaVersion": "3.3.4",
  "updatedAt": "2021-04-25T05:47:08.069Z",
  "devdoc": {
    "kind": "dev",
    "methods": {},
    "version": 1
  },
  "userdoc": {
    "kind": "user",
    "methods": {},
    "version": 1
  }
}